{
  "contractName": "StakingMock",
  "abi": [
    {
      "inputs": [
        {
          "internalType": "address",
          "name": "ERC20Address",
          "type": "address"
        },
        {
          "internalType": "uint256",
          "name": "interestRatePerBlock",
          "type": "uint256"
        },
        {
          "internalType": "uint256",
          "name": "pausedSinceBlock",
          "type": "uint256"
        },
        {
          "internalType": "uint64",
          "name": "lockPeriodInBlocks",
          "type": "uint64"
        }
      ],
      "stateMutability": "nonpayable",
      "type": "constructor"
    },
    {
      "anonymous": false,
      "inputs": [
        {
          "indexed": true,
          "internalType": "address",
          "name": "stakerAddress",
          "type": "address"
        },
        {
          "indexed": true,
          "internalType": "uint256",
          "name": "sinceInterestRateIndex",
          "type": "uint256"
        },
        {
          "indexed": false,
          "internalType": "uint256",
          "name": "principal",
          "type": "uint256"
        },
        {
          "indexed": false,
          "internalType": "uint256",
          "name": "compoundInterest",
          "type": "uint256"
        }
      ],
      "name": "BindStake",
      "type": "event"
    },
    {
      "anonymous": false,
      "inputs": [],
      "name": "DeleteContract",
      "type": "event"
    },
    {
      "anonymous": false,
      "inputs": [
        {
          "indexed": false,
          "internalType": "address",
          "name": "targetAddress",
          "type": "address"
        },
        {
          "indexed": false,
          "internalType": "uint256",
          "name": "amount",
          "type": "uint256"
        }
      ],
      "name": "ExcessTokenWithdrawal",
      "type": "event"
    },
    {
      "anonymous": false,
      "inputs": [
        {
          "indexed": true,
          "internalType": "address",
          "name": "stakerAddress",
          "type": "address"
        },
        {
          "indexed": false,
          "internalType": "uint256",
          "name": "amount",
          "type": "uint256"
        }
      ],
      "name": "LiquidityDeposited",
      "type": "event"
    },
    {
      "anonymous": false,
      "inputs": [
        {
          "indexed": true,
          "internalType": "address",
          "name": "stakerAddress",
          "type": "address"
        },
        {
          "indexed": false,
          "internalType": "uint256",
          "name": "principal",
          "type": "uint256"
        },
        {
          "indexed": false,
          "internalType": "uint256",
          "name": "compoundInterest",
          "type": "uint256"
        }
      ],
      "name": "LiquidityUnlocked",
      "type": "event"
    },
    {
      "anonymous": false,
      "inputs": [
        {
          "indexed": false,
          "internalType": "uint64",
          "name": "num_of_blocks",
          "type": "uint64"
        }
      ],
      "name": "LockPeriod",
      "type": "event"
    },
    {
      "anonymous": false,
      "inputs": [
        {
          "indexed": true,
          "internalType": "uint256",
          "name": "index",
          "type": "uint256"
        },
        {
          "indexed": false,
          "internalType": "uint256",
          "name": "rate",
          "type": "uint256"
        }
      ],
      "name": "NewInterestRate",
      "type": "event"
    },
    {
      "anonymous": false,
      "inputs": [
        {
          "indexed": false,
          "internalType": "uint256",
          "name": "sinceBlock",
          "type": "uint256"
        }
      ],
      "name": "Pause",
      "type": "event"
    },
    {
      "anonymous": false,
      "inputs": [
        {
          "indexed": false,
          "internalType": "address",
          "name": "sender",
          "type": "address"
        },
        {
          "indexed": false,
          "internalType": "uint256",
          "name": "amount",
          "type": "uint256"
        }
      ],
      "name": "RewardsPoolTokenTopUp",
      "type": "event"
    },
    {
      "anonymous": false,
      "inputs": [
        {
          "indexed": false,
          "internalType": "address",
          "name": "targetAddress",
          "type": "address"
        },
        {
          "indexed": false,
          "internalType": "uint256",
          "name": "amount",
          "type": "uint256"
        }
      ],
      "name": "RewardsPoolTokenWithdrawal",
      "type": "event"
    },
    {
      "anonymous": false,
      "inputs": [
        {
          "indexed": true,
          "internalType": "bytes32",
          "name": "role",
          "type": "bytes32"
        },
        {
          "indexed": true,
          "internalType": "bytes32",
          "name": "previousAdminRole",
          "type": "bytes32"
        },
        {
          "indexed": true,
          "internalType": "bytes32",
          "name": "newAdminRole",
          "type": "bytes32"
        }
      ],
      "name": "RoleAdminChanged",
      "type": "event"
    },
    {
      "anonymous": false,
      "inputs": [
        {
          "indexed": true,
          "internalType": "bytes32",
          "name": "role",
          "type": "bytes32"
        },
        {
          "indexed": true,
          "internalType": "address",
          "name": "account",
          "type": "address"
        },
        {
          "indexed": true,
          "internalType": "address",
          "name": "sender",
          "type": "address"
        }
      ],
      "name": "RoleGranted",
      "type": "event"
    },
    {
      "anonymous": false,
      "inputs": [
        {
          "indexed": true,
          "internalType": "bytes32",
          "name": "role",
          "type": "bytes32"
        },
        {
          "indexed": true,
          "internalType": "address",
          "name": "account",
          "type": "address"
        },
        {
          "indexed": true,
          "internalType": "address",
          "name": "sender",
          "type": "address"
        }
      ],
      "name": "RoleRevoked",
      "type": "event"
    },
    {
      "anonymous": false,
      "inputs": [
        {
          "indexed": true,
          "internalType": "address",
          "name": "stakerAddress",
          "type": "address"
        },
        {
          "indexed": true,
          "internalType": "uint256",
          "name": "sinceInterestRateIndex",
          "type": "uint256"
        },
        {
          "indexed": false,
          "internalType": "uint256",
          "name": "principal",
          "type": "uint256"
        },
        {
          "indexed": false,
          "internalType": "uint256",
          "name": "compoundInterest",
          "type": "uint256"
        }
      ],
      "name": "StakeCompoundInterest",
      "type": "event"
    },
    {
      "anonymous": false,
      "inputs": [
        {
          "indexed": false,
          "internalType": "address",
          "name": "targetAddress",
          "type": "address"
        },
        {
          "indexed": false,
          "internalType": "uint256",
          "name": "amount",
          "type": "uint256"
        }
      ],
      "name": "TokenWithdrawal",
      "type": "event"
    },
    {
      "anonymous": false,
      "inputs": [
        {
          "indexed": true,
          "internalType": "address",
          "name": "stakerAddress",
          "type": "address"
        },
        {
          "indexed": true,
          "internalType": "uint256",
          "name": "liquidSinceBlock",
          "type": "uint256"
        },
        {
          "indexed": false,
          "internalType": "uint256",
          "name": "principal",
          "type": "uint256"
        },
        {
          "indexed": false,
          "internalType": "uint256",
          "name": "compoundInterest",
          "type": "uint256"
        }
      ],
      "name": "UnbindStake",
      "type": "event"
    },
    {
      "anonymous": false,
      "inputs": [
        {
          "indexed": true,
          "internalType": "address",
          "name": "stakerAddress",
          "type": "address"
        },
        {
          "indexed": false,
          "internalType": "uint256",
          "name": "principal",
          "type": "uint256"
        },
        {
          "indexed": false,
          "internalType": "uint256",
          "name": "compoundInterest",
          "type": "uint256"
        }
      ],
      "name": "Withdraw",
      "type": "event"
    },
    {
      "inputs": [],
      "name": "DEFAULT_ADMIN_ROLE",
      "outputs": [
        {
          "internalType": "bytes32",
          "name": "",
          "type": "bytes32"
        }
      ],
      "stateMutability": "view",
      "type": "function"
    },
    {
      "inputs": [],
      "name": "DELEGATE_ROLE",
      "outputs": [
        {
          "internalType": "bytes32",
          "name": "",
          "type": "bytes32"
        }
      ],
      "stateMutability": "view",
      "type": "function"
    },
    {
      "inputs": [],
      "name": "DELETE_PROTECTION_PERIOD",
      "outputs": [
        {
          "internalType": "uint256",
          "name": "",
          "type": "uint256"
        }
      ],
      "stateMutability": "view",
      "type": "function"
    },
    {
      "inputs": [],
      "name": "_accruedGlobalLiquidity",
      "outputs": [
        {
          "internalType": "uint256",
          "name": "principal",
          "type": "uint256"
        },
        {
          "internalType": "uint256",
          "name": "compoundInterest",
          "type": "uint256"
        }
      ],
      "stateMutability": "view",
      "type": "function"
    },
    {
      "inputs": [],
      "name": "_accruedGlobalLocked",
      "outputs": [
        {
          "internalType": "uint256",
          "name": "principal",
          "type": "uint256"
        },
        {
          "internalType": "uint256",
          "name": "compoundInterest",
          "type": "uint256"
        }
      ],
      "stateMutability": "view",
      "type": "function"
    },
    {
      "inputs": [],
      "name": "_accruedGlobalPrincipal",
      "outputs": [
        {
          "internalType": "uint256",
          "name": "",
          "type": "uint256"
        }
      ],
      "stateMutability": "view",
      "type": "function"
    },
    {
      "inputs": [],
      "name": "_blockNumber",
      "outputs": [
        {
          "internalType": "uint256",
          "name": "",
          "type": "uint256"
        }
      ],
      "stateMutability": "view",
      "type": "function"
    },
    {
      "inputs": [],
      "name": "_earliestDelete",
      "outputs": [
        {
          "internalType": "uint256",
          "name": "",
          "type": "uint256"
        }
      ],
      "stateMutability": "view",
      "type": "function"
    },
    {
      "inputs": [
        {
          "internalType": "uint256",
          "name": "",
          "type": "uint256"
        }
      ],
      "name": "_interestRates",
      "outputs": [
        {
          "internalType": "uint256",
          "name": "sinceBlock",
          "type": "uint256"
        },
        {
          "internalType": "uint256",
          "name": "rate",
          "type": "uint256"
        }
      ],
      "stateMutability": "view",
      "type": "function"
    },
    {
      "inputs": [],
      "name": "_interestRatesNextIdx",
      "outputs": [
        {
          "internalType": "uint256",
          "name": "",
          "type": "uint256"
        }
      ],
      "stateMutability": "view",
      "type": "function"
    },
    {
      "inputs": [],
      "name": "_interestRatesStartIdx",
      "outputs": [
        {
          "internalType": "uint256",
          "name": "",
          "type": "uint256"
        }
      ],
      "stateMutability": "view",
      "type": "function"
    },
    {
      "inputs": [
        {
          "internalType": "address",
          "name": "",
          "type": "address"
        }
      ],
      "name": "_liquidity",
      "outputs": [
        {
          "internalType": "uint256",
          "name": "principal",
          "type": "uint256"
        },
        {
          "internalType": "uint256",
          "name": "compoundInterest",
          "type": "uint256"
        }
      ],
      "stateMutability": "view",
      "type": "function"
    },
    {
      "inputs": [],
      "name": "_lockPeriodInBlocks",
      "outputs": [
        {
          "internalType": "uint64",
          "name": "",
          "type": "uint64"
        }
      ],
      "stateMutability": "view",
      "type": "function"
    },
    {
      "inputs": [],
      "name": "_pausedSinceBlock",
      "outputs": [
        {
          "internalType": "uint256",
          "name": "",
          "type": "uint256"
        }
      ],
      "stateMutability": "view",
      "type": "function"
    },
    {
      "inputs": [],
      "name": "_rewardsPoolBalance",
      "outputs": [
        {
          "internalType": "uint256",
          "name": "",
          "type": "uint256"
        }
      ],
      "stateMutability": "view",
      "type": "function"
    },
    {
      "inputs": [],
      "name": "_token",
      "outputs": [
        {
          "internalType": "contract IERC20",
          "name": "",
          "type": "address"
        }
      ],
      "stateMutability": "view",
      "type": "function"
    },
    {
      "inputs": [
        {
          "internalType": "uint256",
          "name": "rate",
          "type": "uint256"
        },
        {
          "internalType": "uint256",
          "name": "expirationBlock",
          "type": "uint256"
        }
      ],
      "name": "addInterestRate",
      "outputs": [],
      "stateMutability": "nonpayable",
      "type": "function"
    },
    {
      "inputs": [
        {
          "internalType": "uint256",
          "name": "amount",
          "type": "uint256"
        },
        {
          "internalType": "uint256",
          "name": "txExpirationBlock",
          "type": "uint256"
        }
      ],
      "name": "bindStake",
      "outputs": [],
      "stateMutability": "nonpayable",
      "type": "function"
    },
    {
      "inputs": [
        {
          "internalType": "address payable",
          "name": "payoutAddress",
          "type": "address"
        },
        {
          "internalType": "uint256",
          "name": "txExpirationBlock",
          "type": "uint256"
        }
      ],
      "name": "deleteContract",
      "outputs": [],
      "stateMutability": "nonpayable",
      "type": "function"
    },
    {
      "inputs": [
        {
          "internalType": "uint256",
          "name": "amount",
          "type": "uint256"
        },
        {
          "internalType": "uint256",
          "name": "txExpirationBlock",
          "type": "uint256"
        }
      ],
      "name": "deposit",
      "outputs": [],
      "stateMutability": "nonpayable",
      "type": "function"
    },
    {
      "inputs": [],
      "name": "getEarliestDeleteBlock",
      "outputs": [
        {
          "internalType": "uint256",
          "name": "",
          "type": "uint256"
        }
      ],
      "stateMutability": "view",
      "type": "function"
    },
    {
      "inputs": [
        {
          "internalType": "address",
          "name": "for_address",
          "type": "address"
        }
      ],
      "name": "getLockedAssetsAggregateForUser",
      "outputs": [
        {
          "internalType": "uint256",
          "name": "principal",
          "type": "uint256"
        },
        {
          "internalType": "uint256",
          "name": "compoundInterest",
          "type": "uint256"
        }
      ],
      "stateMutability": "view",
      "type": "function"
    },
    {
      "inputs": [
        {
          "internalType": "address",
          "name": "for_address",
          "type": "address"
        }
      ],
      "name": "getLockedAssetsForUser",
      "outputs": [
        {
          "internalType": "uint256[]",
          "name": "principal",
          "type": "uint256[]"
        },
        {
          "internalType": "uint256[]",
          "name": "compoundInterest",
          "type": "uint256[]"
        },
        {
          "internalType": "uint256[]",
          "name": "liquidSinceBlock",
          "type": "uint256[]"
        }
      ],
      "stateMutability": "view",
      "type": "function"
    },
    {
      "inputs": [
        {
          "internalType": "address",
          "name": "for_address",
          "type": "address"
        }
      ],
      "name": "getNumberOfLockedAssetsForUser",
      "outputs": [
        {
          "internalType": "uint256",
          "name": "length",
          "type": "uint256"
        }
      ],
      "stateMutability": "view",
      "type": "function"
    },
    {
      "inputs": [],
      "name": "getRewardsPoolBalance",
      "outputs": [
        {
          "internalType": "uint256",
          "name": "",
          "type": "uint256"
        }
      ],
      "stateMutability": "view",
      "type": "function"
    },
    {
      "inputs": [
        {
          "internalType": "bytes32",
          "name": "role",
          "type": "bytes32"
        }
      ],
      "name": "getRoleAdmin",
      "outputs": [
        {
          "internalType": "bytes32",
          "name": "",
          "type": "bytes32"
        }
      ],
      "stateMutability": "view",
      "type": "function"
    },
    {
      "inputs": [
        {
          "internalType": "bytes32",
          "name": "role",
          "type": "bytes32"
        },
        {
          "internalType": "uint256",
          "name": "index",
          "type": "uint256"
        }
      ],
      "name": "getRoleMember",
      "outputs": [
        {
          "internalType": "address",
          "name": "",
          "type": "address"
        }
      ],
      "stateMutability": "view",
      "type": "function"
    },
    {
      "inputs": [
        {
          "internalType": "bytes32",
          "name": "role",
          "type": "bytes32"
        }
      ],
      "name": "getRoleMemberCount",
      "outputs": [
        {
          "internalType": "uint256",
          "name": "",
          "type": "uint256"
        }
      ],
      "stateMutability": "view",
      "type": "function"
    },
    {
      "inputs": [
        {
          "internalType": "address",
          "name": "for_address",
          "type": "address"
        }
      ],
      "name": "getStakeForUser",
      "outputs": [
        {
          "internalType": "uint256",
          "name": "principal",
          "type": "uint256"
        },
        {
          "internalType": "uint256",
          "name": "compoundInterest",
          "type": "uint256"
        },
        {
          "internalType": "uint256",
          "name": "sinceBlock",
          "type": "uint256"
        },
        {
          "internalType": "uint256",
          "name": "sinceInterestRateIndex",
          "type": "uint256"
        }
      ],
      "stateMutability": "view",
      "type": "function"
    },
    {
      "inputs": [
        {
          "internalType": "bytes32",
          "name": "role",
          "type": "bytes32"
        },
        {
          "internalType": "address",
          "name": "account",
          "type": "address"
        }
      ],
      "name": "grantRole",
      "outputs": [],
      "stateMutability": "nonpayable",
      "type": "function"
    },
    {
      "inputs": [
        {
          "internalType": "bytes32",
          "name": "role",
          "type": "bytes32"
        },
        {
          "internalType": "address",
          "name": "account",
          "type": "address"
        }
      ],
      "name": "hasRole",
      "outputs": [
        {
          "internalType": "bool",
          "name": "",
          "type": "bool"
        }
      ],
      "stateMutability": "view",
      "type": "function"
    },
    {
      "inputs": [
        {
          "internalType": "uint256",
          "name": "block_number",
          "type": "uint256"
        },
        {
          "internalType": "uint256",
          "name": "txExpirationBlock",
          "type": "uint256"
        }
      ],
      "name": "pauseSince",
      "outputs": [],
      "stateMutability": "nonpayable",
      "type": "function"
    },
    {
      "inputs": [
        {
          "internalType": "bytes32",
          "name": "role",
          "type": "bytes32"
        },
        {
          "internalType": "address",
          "name": "account",
          "type": "address"
        }
      ],
      "name": "renounceRole",
      "outputs": [],
      "stateMutability": "nonpayable",
      "type": "function"
    },
    {
      "inputs": [
        {
          "internalType": "bytes32",
          "name": "role",
          "type": "bytes32"
        },
        {
          "internalType": "address",
          "name": "account",
          "type": "address"
        }
      ],
      "name": "revokeRole",
      "outputs": [],
      "stateMutability": "nonpayable",
      "type": "function"
    },
    {
      "inputs": [
        {
          "internalType": "uint256",
          "name": "amount",
          "type": "uint256"
        },
        {
          "internalType": "uint256",
          "name": "txExpirationBlock",
          "type": "uint256"
        }
      ],
      "name": "topUpRewardsPool",
      "outputs": [],
      "stateMutability": "nonpayable",
      "type": "function"
    },
    {
      "inputs": [
        {
          "internalType": "uint256",
          "name": "amount",
          "type": "uint256"
        },
        {
          "internalType": "uint256",
          "name": "txExpirationBlock",
          "type": "uint256"
        }
      ],
      "name": "unbindStake",
      "outputs": [],
      "stateMutability": "nonpayable",
      "type": "function"
    },
    {
      "inputs": [
        {
          "internalType": "uint64",
          "name": "num_of_blocks",
          "type": "uint64"
        },
        {
          "internalType": "uint256",
          "name": "txExpirationBlock",
          "type": "uint256"
        }
      ],
      "name": "updateLockPeriod",
      "outputs": [],
      "stateMutability": "nonpayable",
      "type": "function"
    },
    {
      "inputs": [
        {
          "internalType": "uint256",
          "name": "amount",
          "type": "uint256"
        },
        {
          "internalType": "uint256",
          "name": "txExpirationBlock",
          "type": "uint256"
        }
      ],
      "name": "withdraw",
      "outputs": [],
      "stateMutability": "nonpayable",
      "type": "function"
    },
    {
      "inputs": [
        {
          "internalType": "uint256",
          "name": "txExpirationBlock",
          "type": "uint256"
        }
      ],
      "name": "withdrawCompoundInterest",
      "outputs": [],
      "stateMutability": "nonpayable",
      "type": "function"
    },
    {
      "inputs": [
        {
          "internalType": "address payable",
          "name": "targetAddress",
          "type": "address"
        },
        {
          "internalType": "uint256",
          "name": "txExpirationBlock",
          "type": "uint256"
        }
      ],
      "name": "withdrawExcessTokens",
      "outputs": [],
      "stateMutability": "nonpayable",
      "type": "function"
    },
    {
      "inputs": [
        {
          "internalType": "uint256",
          "name": "amount",
          "type": "uint256"
        },
        {
          "internalType": "address payable",
          "name": "targetAddress",
          "type": "address"
        },
        {
          "internalType": "uint256",
          "name": "txExpirationBlock",
          "type": "uint256"
        }
      ],
      "name": "withdrawFromRewardsPool",
      "outputs": [],
      "stateMutability": "nonpayable",
      "type": "function"
    },
    {
      "inputs": [
        {
          "internalType": "uint256",
          "name": "txExpirationBlock",
          "type": "uint256"
        }
      ],
      "name": "withdrawPrincipal",
      "outputs": [],
      "stateMutability": "nonpayable",
      "type": "function"
    },
    {
      "inputs": [
        {
          "internalType": "uint256",
          "name": "txExpirationBlock",
          "type": "uint256"
        }
      ],
      "name": "withdrawWholeLiquidity",
      "outputs": [],
      "stateMutability": "nonpayable",
      "type": "function"
    },
    {
      "inputs": [
        {
          "internalType": "uint256",
          "name": "blockNumber",
          "type": "uint256"
        }
      ],
      "name": "setBlockNumber",
      "outputs": [],
      "stateMutability": "nonpayable",
      "type": "function"
    }
  ],
  "bytecode": "0x60806040523480156200001157600080fd5b506040516200396e3803806200396e833981810160405260808110156200003757600080fd5b508051602082015160408301516060909301519192909183838383620000686000336001600160e01b03620000f616565b600180546001600160a01b0319166001600160a01b038616179055620000a96205a66d620000956200010f565b6200011560201b620024211790919060201c565b600255620000c0816001600160e01b036200017916565b620000d4836001600160e01b03620001cd16565b620000e8826001600160e01b036200026916565b5050505050505050620003e2565b6200010b82826001600160e01b03620002cc16565b5050565b60115490565b60008282018381101562000170576040805162461bcd60e51b815260206004820152601b60248201527f536166654d6174683a206164646974696f6e206f766572666c6f770000000000604482015290519081900360640190fd5b90505b92915050565b600480546001600160401b0383166001600160401b0319909116811790915560408051918252517f6b24ea7c7a8ce7fd2e6a6cb675dbabcd38a90f83ddd581c4435610ce90456e8f9181900360200190a150565b600c546040805180820190915280620001ee6001600160e01b036200010f16565b815260209081018490526000838152600d8252604090208251815591810151600192830155600c546200022c9290916200242162000115821b17901c565b600c5560408051838152905182917fbcd200f406c53d9438c6cdc2966a1e99c35f336588c95bc3639e539df21c2f53919081900360200190a25050565b60006200027e6001600160e01b036200010f16565b90508082106200028f578162000291565b805b600381905560408051918252517f68b095021b1f40fe513109f513c66692f0b3219aee674a69f4efc57badb8201d9181900360200190a15050565b600082815260208181526040909120620002f19183906200247b6200034e821b17901c565b156200010b576200030a6001600160e01b036200036e16565b6001600160a01b0316816001600160a01b0316837f2f8788117e7eff1d82e926ec794901d17c78024a50270940304540a733656f0d60405160405180910390a45050565b600062000170836001600160a01b0384166001600160e01b036200037216565b3390565b60006200038983836001600160e01b03620003ca16565b620003c15750815460018181018455600084815260208082209093018490558454848252828601909352604090209190915562000173565b50600062000173565b60009081526001919091016020526040902054151590565b61357c80620003f26000396000f3fe608060405234801561001057600080fd5b50600436106102745760003560e01c806391d1485411610151578063ca15c873116100c3578063d9d8e78311610087578063d9d8e783146107fa578063dca2aa5c14610802578063e2bbb1581461081f578063ecd0c0c314610842578063f0895e521461084a578063f1209ef71461087757610274565b8063ca15c87314610784578063d547741f146107a1578063d7e0e975146107cd578063d8cd3999146107d5578063d9b202c9146107f257610274565b8063aa700ff211610115578063aa700ff2146106e0578063adf55101146106fd578063ba92a4c514610705578063c0ba241b14610728578063c30f75cf14610730578063c8984ab21461077c57610274565b806391d14854146106295780639608df4b14610669578063a217fddf14610695578063a8c3c8501461069d578063a8f1b4c4146106ba57610274565b806340e97903116101ea5780635f208f34116101ae5780635f208f3414610435578063658e28a41461053957806367ce50c01461055657806368bccfcf1461059557806388cedd5e146105c75780639010d07c146105ea57610274565b806340e97903146103955780634164b001146103bb578063441a3e70146103c357806352885d8d146103e657806353e052ac1461040957610274565b8063292911fb1161023c578063292911fb146103025780632f2ff15d1461030a57806332a1bd7014610336578063347908df1461033e57806336568abe14610361578063372646bb1461038d57610274565b8063085313ec146102795780630c450f9d14610293578063133840391461029b578063248a9ca3146102c05780632514c50a146102dd575b600080fd5b61028161087f565b60408051918252519081900360200190f35b610281610886565b6102be600480360360408110156102b157600080fd5b508035906020013561088c565b005b610281600480360360208110156102d657600080fd5b503561095a565b6102e561096f565b6040805167ffffffffffffffff9092168252519081900360200190f35b61028161097f565b6102be6004803603604081101561032057600080fd5b50803590602001356001600160a01b0316610985565b6102816109f1565b6102be6004803603604081101561035457600080fd5b50803590602001356109f7565b6102be6004803603604081101561037757600080fd5b50803590602001356001600160a01b0316610ac0565b610281610b21565b610281600480360360208110156103ab57600080fd5b50356001600160a01b0316610b28565b610281610b46565b6102be600480360360408110156103d957600080fd5b5080359060200135610b4c565b6102be600480360360408110156103fc57600080fd5b5080359060200135610c2d565b6102be6004803603604081101561041f57600080fd5b506001600160a01b0381351690602001356110c6565b61045b6004803603602081101561044b57600080fd5b50356001600160a01b031661132a565b60405180806020018060200180602001848103845287818151815260200191508051906020019060200280838360005b838110156104a357818101518382015260200161048b565b50505050905001848103835286818151815260200191508051906020019060200280838360005b838110156104e25781810151838201526020016104ca565b50505050905001848103825285818151815260200191508051906020019060200280838360005b83811015610521578181015183820152602001610509565b50505050905001965050505050505060405180910390f35b6102be6004803603602081101561054f57600080fd5b50356114bd565b61057c6004803603602081101561056c57600080fd5b50356001600160a01b0316611596565b6040805192835260208301919091528051918290030190f35b6102be600480360360608110156105ab57600080fd5b508035906001600160a01b0360208201351690604001356115af565b6102be600480360360408110156105dd57600080fd5b50803590602001356118c1565b61060d6004803603604081101561060057600080fd5b5080359060200135611a53565b604080516001600160a01b039092168252519081900360200190f35b6106556004803603604081101561063f57600080fd5b50803590602001356001600160a01b0316611a7a565b604080519115158252519081900360200190f35b6102be6004803603604081101561067f57600080fd5b506001600160a01b038135169060200135611a98565b610281611ccc565b6102be600480360360208110156106b357600080fd5b5035611cd1565b61057c600480360360208110156106d057600080fd5b50356001600160a01b0316611cd6565b61057c600480360360208110156106f657600080fd5b5035611cf9565b610281611d12565b6102be6004803603604081101561071b57600080fd5b5080359060200135611d18565b610281611e8c565b6107566004803603602081101561074657600080fd5b50356001600160a01b0316611eb1565b604080519485526020850193909352838301919091526060830152519081900360800190f35b61057c611ee2565b6102816004803603602081101561079a57600080fd5b5035611eeb565b6102be600480360360408110156107b757600080fd5b50803590602001356001600160a01b0316611f02565b610281611f5b565b6102be600480360360208110156107eb57600080fd5b5035611f61565b61057c61203b565b610281612044565b6102be6004803603602081101561081857600080fd5b503561204a565b6102be6004803603604081101561083557600080fd5b508035906020013561213b565b61060d612343565b6102be6004803603604081101561086057600080fd5b5067ffffffffffffffff8135169060200135612352565b61028161241b565b6002545b90565b60055481565b610894612490565b806108c65750604080516c44454c45474154455f524f4c4560981b8152905190819003600d0190206108c69033611a7a565b6109015760405162461bcd60e51b81526004018080602001828103825260248152602001806134646024913960400191505060405180910390fd5b808061090b6124a1565b111561094c576040805162461bcd60e51b815260206004820152601360248201526000805160206134b8833981519152604482015290519081900360640190fd5b610955836124a7565b505050565b60009081526020819052604090206002015490565b60045467ffffffffffffffff1681565b60065481565b6000828152602081905260409020600201546109a8906109a3612530565b611a7a565b6109e35760405162461bcd60e51b815260040180806020018281038252602f815260200180613435602f913960400191505060405180910390fd5b6109ed8282612534565b5050565b60025481565b8080610a016124a1565b1115610a42576040805162461bcd60e51b815260206004820152601360248201526000805160206134b8833981519152604482015290519081900360640190fd5b610a4a612490565b80610a7c5750604080516c44454c45474154455f524f4c4560981b8152905190819003600d019020610a7c9033611a7a565b610ab75760405162461bcd60e51b81526004018080602001828103825260248152602001806134646024913960400191505060405180910390fd5b610955836125a3565b610ac8612530565b6001600160a01b0316816001600160a01b031614610b175760405162461bcd60e51b815260040180806020018281038252602f815260200180613518602f913960400191505060405180910390fd5b6109ed82826125f9565b6205a66d81565b6001600160a01b03166000908152600f602052604090206002015490565b600c5481565b8080610b566124a1565b1115610b97576040805162461bcd60e51b815260206004820152601360248201526000805160206134b8833981519152604482015290519081900360640190fd5b610b9f6124a1565b60035411610be2576040805162461bcd60e51b815260206004820152601860248201526000805160206134f8833981519152604482015290519081900360640190fd5b336000610bed6124a1565b90506000610bfb8383612668565b50915050610c0761338a565b610c17828863ffffffff6128c716565b9050610c24848289612940565b50505050505050565b8080610c376124a1565b1115610c78576040805162461bcd60e51b815260206004820152601360248201526000805160206134b8833981519152604482015290519081900360640190fd5b610c806124a1565b60035411610cc3576040805162461bcd60e51b815260206004820152601860248201526000805160206134f8833981519152604482015290519081900360640190fd5b6000610ccd6124a1565b9050336000610cdc8284612aed565b90506000610cec82600201612c66565b9050610cf661338a565b8715610ef85781881115610d51576040805162461bcd60e51b815260206004820152601b60248201527f416d6f756e7420697320686967686572207468616e207374616b650000000000604482015290519081900360640190fd5b60045467ffffffffffffffff16610e29576001600160a01b0384166000908152601060205260409020610d8f9060028501908a63ffffffff612c8016565b9050610da260078263ffffffff612ca516565b80516020808301516040805193845291830152805187926001600160a01b038816926000805160206134d883398151915292918290030190a38051602080830151604080519384529183015280516001600160a01b038716927fa219ed960eef85ed4cd072d3a9f240ea94727c0d6fb15e9a91a8cd4bf18ee3a692908290030190a2610ef3565b6001600160a01b0384166000908152600f6020908152604082206002810180546001810182559084529190922060045460039092020190610e7b90889067ffffffffffffffff1663ffffffff61242116565b8155610e9460028601600183018c63ffffffff612c8016565b9250610ea760098463ffffffff612ca516565b610eb7828463ffffffff612ca516565b80548351602080860151604080519384529183015280516001600160a01b038a16926000805160206134d883398151915292908290030190a350505b6110bc565b81610f07575050505050610955565b5060408051808201909152600283018054825260038401805460208401526000918290555560045467ffffffffffffffff16610ffd576001600160a01b0384166000908152601060205260409020610f65908263ffffffff612ca516565b610f7660078263ffffffff612ca516565b80516020808301516040805193845291830152805187926001600160a01b038816926000805160206134d883398151915292918290030190a38051602080830151604080519384529183015280516001600160a01b038716927fa219ed960eef85ed4cd072d3a9f240ea94727c0d6fb15e9a91a8cd4bf18ee3a692908290030190a26110bc565b6001600160a01b0384166000908152600f602090815260408220600281018054600181018255908452919092206004546003909202019061104f90889067ffffffffffffffff1663ffffffff61242116565b8155825160018201556020830151600282015561107360098463ffffffff612ca516565b611083828463ffffffff612ca516565b805460018201546002830154604080519283526020830191909152805133926000805160206134d883398151915292908290030190a350505b5050505050505050565b80806110d06124a1565b1115611111576040805162461bcd60e51b815260206004820152601360248201526000805160206134b8833981519152604482015290519081900360640190fd5b611119612490565b611163576040805162461bcd60e51b815260206004820152601660248201527521b0b63632b91034b9903737ba1030b71037bbb732b960511b604482015290519081900360640190fd5b600154604080516370a0823160e01b815230600482015290516000926001600160a01b0316916370a08231916024808301926020929190829003018186803b1580156111ae57600080fd5b505afa1580156111c2573d6000803e3d6000fd5b505050506040513d60208110156111d857600080fd5b50516005546006549192506000916111f59163ffffffff61242116565b90506000611209838363ffffffff612cdf16565b6001546040805163a9059cbb60e01b81526001600160a01b038a8116600483015260248201859052915193945091169163a9059cbb916044808201926020929091908290030181600087803b15801561126157600080fd5b505af1158015611275573d6000803e3d6000fd5b505050506040513d602081101561128b57600080fd5b50516112de576040805162461bcd60e51b815260206004820181905260248201527f4e6f7420656e6f7567682066756e6473206f6e20636f6e74722e20616464722e604482015290519081900360640190fd5b604080516001600160a01b03881681526020810183905281517f7f66376a5ef2f39ab4ee2ee6e400606624e66929dba5d82df5b14dd0070a8a87929181900390910190a1505050505050565b6001600160a01b0381166000908152600f602052604090206002018054606091829182919080156114b4578067ffffffffffffffff8111801561136c57600080fd5b50604051908082528060200260200182016040528015611396578160200160208202803683370190505b5094508067ffffffffffffffff811180156113b057600080fd5b506040519080825280602002602001820160405280156113da578160200160208202803683370190505b5093508067ffffffffffffffff811180156113f457600080fd5b5060405190808252806020026020018201604052801561141e578160200160208202803683370190505b50925060005b818110156114b257600083828154811061143a57fe5b906000526020600020906003020190506000816001019050806000015488848151811061146357fe5b602002602001018181525050806001015487848151811061148057fe5b602002602001018181525050816000015486848151811061149d57fe5b60209081029190910101525050600101611424565b505b50509193909250565b80806114c76124a1565b1115611508576040805162461bcd60e51b815260206004820152601360248201526000805160206134b8833981519152604482015290519081900360640190fd5b6115106124a1565b60035411611553576040805162461bcd60e51b815260206004820152601860248201526000805160206134f8833981519152604482015290519081900360640190fd5b33600061155e6124a1565b9050600061156c8383612668565b5091505061157861338a565b81548082526000835561158e9085908390612940565b505050505050565b6010602052600090815260409020805460019091015482565b80806115b96124a1565b11156115fa576040805162461bcd60e51b815260206004820152601360248201526000805160206134b8833981519152604482015290519081900360640190fd5b611602612490565b61164c576040805162461bcd60e51b815260206004820152601660248201527521b0b63632b91034b9903737ba1030b71037bbb732b960511b604482015290519081900360640190fd5b8361165b5760055493506116b2565b6005548411156116b2576040805162461bcd60e51b815260206004820152601f60248201527f416d6f756e7420686967686572207468616e207265776172647320706f6f6c00604482015290519081900360640190fd5b600154604080516370a0823160e01b815230600482015290516000926001600160a01b0316916370a08231916024808301926020929190829003018186803b1580156116fd57600080fd5b505afa158015611711573d6000803e3d6000fd5b505050506040513d602081101561172757600080fd5b5051600654909150600090611742908763ffffffff61242116565b905081811115611799576040805162461bcd60e51b815260206004820152601760248201527f436f6e747261637420696e636f6e73697374656e63792e000000000000000000604482015290519081900360640190fd5b6001546040805163a9059cbb60e01b81526001600160a01b038881166004830152602482018a90529151919092169163a9059cbb9160448083019260209291908290030181600087803b1580156117ef57600080fd5b505af1158015611803573d6000803e3d6000fd5b505050506040513d602081101561181957600080fd5b505161186c576040805162461bcd60e51b815260206004820181905260248201527f4e6f7420656e6f7567682066756e6473206f6e20636f6e74722e20616464722e604482015290519081900360640190fd5b600580548790039055604080516001600160a01b03871681526020810188905281517f8a652d32cc9efc0a4f0fc3708c9fb81d5a924a7b9af2a37c46e9e4910d0dc325929181900390910190a1505050505050565b80806118cb6124a1565b111561190c576040805162461bcd60e51b815260206004820152601360248201526000805160206134b8833981519152604482015290519081900360640190fd5b6119146124a1565b60035411611957576040805162461bcd60e51b815260206004820152601860248201526000805160206134f8833981519152604482015290519081900360640190fd5b600083116119ac576040805162461bcd60e51b815260206004820152601f60248201527f416d6f756e74206d75737420626520686967686572207468616e207a65726f00604482015290519081900360640190fd5b60006119b66124a1565b905060006119c43383612668565b5091505060006119d43384612aed565b90506119de61338a565b6119f283600284018963ffffffff612d2116565b9050611a0560078263ffffffff612d3316565b600182015481516020808401516040805193845291830152805133927f0fb741c5ad2cad8215be7b4cab4e3f202f907d4540668ebf954f8e742efd89cf92908290030190a350505050505050565b6000828152602081905260408120611a71908363ffffffff612d6116565b90505b92915050565b6000828152602081905260408120611a71908363ffffffff612d6d16565b8080611aa26124a1565b1115611ae3576040805162461bcd60e51b815260206004820152601360248201526000805160206134b8833981519152604482015290519081900360640190fd5b611aeb612490565b611b35576040805162461bcd60e51b815260206004820152601660248201527521b0b63632b91034b9903737ba1030b71037bbb732b960511b604482015290519081900360640190fd5b611b3d6124a1565b6002541015611b93576040805162461bcd60e51b815260206004820152601b60248201527f4561726c696573742064656c657465206e6f7420726561636865640000000000604482015290519081900360640190fd5b600154604080516370a0823160e01b815230600482015290516000926001600160a01b0316916370a08231916024808301926020929190829003018186803b158015611bde57600080fd5b505afa158015611bf2573d6000803e3d6000fd5b505050506040513d6020811015611c0857600080fd5b50516001546040805163a9059cbb60e01b81526001600160a01b03888116600483015260248201859052915193945091169163a9059cbb916044808201926020929091908290030181600087803b158015611c6257600080fd5b505af1158015611c76573d6000803e3d6000fd5b505050506040513d6020811015611c8c57600080fd5b5051611c9757600080fd5b6040517fe4dedc7f698868c432fb679313d1381b06601dfb7174d9b18b2e35378b67633390600090a1836001600160a01b0316ff5b600081565b601155565b6001600160a01b03166000908152600f6020526040902080546001909101549091565b600d602052600090815260409020805460019091015482565b60055490565b8080611d226124a1565b1115611d63576040805162461bcd60e51b815260206004820152601360248201526000805160206134b8833981519152604482015290519081900360640190fd5b82611d6d57610955565b600154604080516323b872dd60e01b81523360048201523060248201526044810186905290516001600160a01b03909216916323b872dd916064808201926020929091908290030181600087803b158015611dc757600080fd5b505af1158015611ddb573d6000803e3d6000fd5b505050506040513d6020811015611df157600080fd5b5051611e36576040805162461bcd60e51b815260206004820152600f60248201526e151c985b9cd9995c8819985a5b1959608a1b604482015290519081900360640190fd5b600554611e49908463ffffffff61242116565b600555604080513381526020810185905281517fb562e06b275d420e5848bb9083041a1c68466a478df92491b473ce99a4c68f68929181900390910190a1505050565b604080516c44454c45474154455f524f4c4560981b8152905190819003600d01902081565b6001600160a01b03166000908152600e60205260409020600281015460038201548254600190930154919390929190565b60075460085482565b6000818152602081905260408120611a7490612d82565b600082815260208190526040902060020154611f20906109a3612530565b610b175760405162461bcd60e51b81526004018080602001828103825260308152602001806134886030913960400191505060405180910390fd5b60115481565b8080611f6b6124a1565b1115611fac576040805162461bcd60e51b815260206004820152601360248201526000805160206134b8833981519152604482015290519081900360640190fd5b611fb46124a1565b60035411611ff7576040805162461bcd60e51b815260206004820152601860248201526000805160206134f8833981519152604482015290519081900360640190fd5b3360006120026124a1565b905060006120108383612668565b5091505061201c61338a565b60018201805460208301819052600090915561158e9085908390612940565b600954600a5482565b600b5481565b80806120546124a1565b1115612095576040805162461bcd60e51b815260206004820152601360248201526000805160206134b8833981519152604482015290519081900360640190fd5b61209d6124a1565b600354116120e0576040805162461bcd60e51b815260206004820152601860248201526000805160206134f8833981519152604482015290519081900360640190fd5b3360006120eb6124a1565b905060006120f98383612668565b5060408051808201909152815481526001820154602082015290925061212a9150849061212584612c66565b612940565b600060018201819055905550505050565b80806121456124a1565b1115612186576040805162461bcd60e51b815260206004820152601360248201526000805160206134b8833981519152604482015290519081900360640190fd5b61218e6124a1565b600354116121d1576040805162461bcd60e51b815260206004820152601860248201526000805160206134f8833981519152604482015290519081900360640190fd5b821580159061230657600154604080516323b872dd60e01b81523360048201523060248201526044810187905290516001600160a01b03909216916323b872dd916064808201926020929091908290030181600087803b15801561223457600080fd5b505af1158015612248573d6000803e3d6000fd5b505050506040513d602081101561225e57600080fd5b50516122a3576040805162461bcd60e51b815260206004820152600f60248201526e151c985b9cd9995c8819985a5b1959608a1b604482015290519081900360640190fd5b6006546122b6908563ffffffff61242116565b6006556007546122cc908563ffffffff61242116565b60075560408051858152905133917f7ff07ce9a287649537e4b012e45cf012d90228b12e2b56bb03515a6b5436fcdf919081900360200190a25b60006123106124a1565b9050600061231e3383612668565b50915050821561158e57805461233a908763ffffffff61242116565b90555050505050565b6001546001600160a01b031681565b808061235c6124a1565b111561239d576040805162461bcd60e51b815260206004820152601360248201526000805160206134b8833981519152604482015290519081900360640190fd5b6123a5612490565b806123d75750604080516c44454c45474154455f524f4c4560981b8152905190819003600d0190206123d79033611a7a565b6124125760405162461bcd60e51b81526004018080602001828103825260248152602001806134646024913960400191505060405180910390fd5b61095583612d8d565b60035481565b600082820183811015611a71576040805162461bcd60e51b815260206004820152601b60248201527f536166654d6174683a206164646974696f6e206f766572666c6f770000000000604482015290519081900360640190fd5b6000611a71836001600160a01b038416612de3565b600061249c8133611a7a565b905090565b60115490565b600c5460408051808201909152806124bd6124a1565b815260209081018490526000838152600d82526040902082518155910151600191820155600c546124f39163ffffffff61242116565b600c5560408051838152905182917fbcd200f406c53d9438c6cdc2966a1e99c35f336588c95bc3639e539df21c2f53919081900360200190a25050565b3390565b6000828152602081905260409020612552908263ffffffff61247b16565b156109ed5761255f612530565b6001600160a01b0316816001600160a01b0316837f2f8788117e7eff1d82e926ec794901d17c78024a50270940304540a733656f0d60405160405180910390a45050565b60006125ad6124a1565b90508082106125bc57816125be565b805b600381905560408051918252517f68b095021b1f40fe513109f513c66692f0b3219aee674a69f4efc57badb8201d9181900360200190a15050565b6000828152602081905260409020612617908263ffffffff612e2d16565b156109ed57612624612530565b6001600160a01b0316816001600160a01b0316837ff6391f5c32d9c69d2a47ea670b442974b53935d1edc7fd64eb21e047a839171b60405160405180910390a45050565b61267061338a565b6001600160a01b0383166000908152600f6020908152604080832060109092528220919060028101825b81548110156127d7576126ab6133a4565b8282815481106126b757fe5b6000918252602091829020604080518082018252600390930290910180548352815180830190925260018101548252600201548184015291810191909152805190915088101561270a57506001016127d2565b60208101515187516127219163ffffffff61242116565b87526020808201518101519088015161273f9163ffffffff61242116565b60208801528254600019018281146127a05783818154811061275d57fe5b906000526020600020906003020184848154811061277757fe5b600091825260209091208254600390920201908155600180830154908201556002918201549101555b838054806127aa57fe5b6000828152602081206003600019909301928302018181556001810182905560020155905550505b61269a565b508054612811576001600160a01b0387166000908152600f60205260408120818155600181018290559061280e60028301826133c3565b50505b8451151580612824575060008560200151115b925082156128be578451602080870151604080519384529183015280516001600160a01b038a16927fa219ed960eef85ed4cd072d3a9f240ea94727c0d6fb15e9a91a8cd4bf18ee3a692908290030190a261288660098663ffffffff612d3316565b80541561289d5761289d828663ffffffff612d3316565b6128ae60078663ffffffff612ca516565b6128be848663ffffffff612ca516565b50509250925092565b6128cf61338a565b818360010154106129005760018301546128ef908363ffffffff612cdf16565b600184015560208101829052611a74565b600183015461291690839063ffffffff612cdf16565b808252835461292a9163ffffffff612cdf16565b8355600190920180546020840152600090555090565b801561095557816020015160055410156129a1576040805162461bcd60e51b815260206004820181905260248201527f4e6f7420656e6f7567682066756e647320696e207265776172647320706f6f6c604482015290519081900360640190fd5b6001546040805163a9059cbb60e01b81526001600160a01b038681166004830152602482018590529151919092169163a9059cbb9160448083019260209291908290030181600087803b1580156129f757600080fd5b505af1158015612a0b573d6000803e3d6000fd5b505050506040513d6020811015612a2157600080fd5b5051612a66576040805162461bcd60e51b815260206004820152600f60248201526e151c985b9cd9995c8819985a5b1959608a1b604482015290519081900360640190fd5b6020820151600554612a7d9163ffffffff612cdf16565b6005558151600654612a949163ffffffff612cdf16565b600655612aa860078363ffffffff612d3316565b81516020808401516040805193845291830152805133927ff279e6a1f5e320cca91135676d9cb6e44ca8a08c0b88342bcdb1144f6511b56892908290030190a2505050565b6001600160a01b0382166000908152600e6020526040812090612b1260028301612c66565b90508015612bf157815460018301545b600c54811015612bd3576000818152600d602052604090208054831015612b90576040805162461bcd60e51b815260206004820152601860248201527f73696e6365426c6f636b20696e636f6e73697374656e63790000000000000000604482015290519081900360640190fd5b600c5486906001840190811015612bb3576000818152600d602052604090205491505b612bc4868460010154878503612e42565b95509093505050600101612b22565b506002830154612bea90839063ffffffff612cdf16565b6003840155505b828255600c54612c02576000612c09565b6001600c54035b600183018190556002830154600384015460408051928352602083019190915280516001600160a01b038816927f6b6b43cdaf8f2ae06bdc6f6be433bb374b703ce8c88db4adce9dd8aefe44fe6d92908290030190a35092915050565b60018101548154600091611a74919063ffffffff61242116565b612c8861338a565b612c9284836128c7565b9050612c9e8382612ca5565b9392505050565b80518254612cb89163ffffffff61242116565b825560208101516001830154612cd39163ffffffff61242116565b82600101819055505050565b6000611a7183836040518060400160405280601e81526020017f536166654d6174683a207375627472616374696f6e206f766572666c6f770000815250612e82565b612d2961338a565b612c928483612f19565b80518254612d469163ffffffff612cdf16565b825560208101516001830154612cd39163ffffffff612cdf16565b6000611a718383612f85565b6000611a71836001600160a01b038416612fe9565b6000611a7482613001565b6004805467ffffffffffffffff831667ffffffffffffffff19909116811790915560408051918252517f6b24ea7c7a8ce7fd2e6a6cb675dbabcd38a90f83ddd581c4435610ce90456e8f9181900360200190a150565b6000612def8383612fe9565b612e2557508154600181810184556000848152602080822090930184905584548482528286019093526040902091909155611a74565b506000611a74565b6000611a71836001600160a01b038416613005565b6000612e7a612e74612e6e612e5760016130cb565b612e6987670de0b6b3a76400006130e9565b613120565b84613154565b856131a2565b949350505050565b60008184841115612f115760405162461bcd60e51b81526004018080602001828103825283818151815260200191508051906020019080838360005b83811015612ed6578181015183820152602001612ebe565b50505050905090810190601f168015612f035780820380516001836020036101000a031916815260200191505b509250505060405180910390fd5b505050900390565b612f2161338a565b82548211612f45578254612f3b908363ffffffff612cdf16565b8355818152611a74565b8254612f5890839063ffffffff612cdf16565b602082018190526001840154612f739163ffffffff612cdf16565b60018401558254815260009092555090565b81546000908210612fc75760405162461bcd60e51b81526004018080602001828103825260228152602001806134136022913960400191505060405180910390fd5b826000018281548110612fd657fe5b9060005260206000200154905092915050565b60009081526001919091016020526040902054151590565b5490565b600081815260018301602052604081205480156130c1578354600019808301919081019060009087908390811061303857fe5b906000526020600020015490508087600001848154811061305557fe5b60009182526020808320909101929092558281526001898101909252604090209084019055865487908061308557fe5b60019003818190600052602060002001600090559055866001016000878152602001908152602001600020600090556001945050505050611a74565b6000915050611a74565b6000677fffffffffffffff8211156130e257600080fd5b5060401b90565b6000816130f557600080fd5b6000613101848461320a565b905060016001607f1b036001600160801b0382161115611a7157600080fd5b6000600f83810b9083900b0160016001607f1b0319811280159061314b575060016001607f1b038113155b611a7157600080fd5b600061316060016130cb565b90505b8115611a745760018216156131895761317c8184613354565b905060018203915061319d565b6131938384613354565b9250600182901c91505b613163565b6000816131b157506000611a74565b600083600f0b12156131c257600080fd5b600f83900b6001600160801b038316810260401c90608084901c026001600160c01b038111156131f157600080fd5b60401b811981111561320257600080fd5b019392505050565b60008161321657600080fd5b60006001600160c01b03841161323b5782604085901b8161323357fe5b049050613340565b60c084811c6401000000008110613254576020918201911c5b620100008110613266576010918201911c5b6101008110613277576008918201911c5b60108110613287576004918201911c5b60048110613297576002918201911c5b600281106132a6576001820191505b60bf820360018603901c6001018260ff0387901b816132c157fe5b0492506001600160801b038311156132d857600080fd5b608085901c83026001600160801b038616840260c088901c604089901b82811015613304576001820391505b608084901b9290038281101561331b576001820391505b829003608084901c821461332b57fe5b88818161333457fe5b04870196505050505050505b6001600160801b03811115611a7157600080fd5b6000600f83810b9083900b0260401d60016001607f1b0319811280159061314b575060016001607f1b03811315611a7157600080fd5b604051806040016040528060008152602001600081525090565b6040518060400160405280600081526020016133be61338a565b905290565b50805460008255600302906000526020600020908101906133e491906133e7565b50565b61088391905b8082111561340e5760008082556001820181905560028201556003016133ed565b509056fe456e756d657261626c655365743a20696e646578206f7574206f6620626f756e6473416363657373436f6e74726f6c3a2073656e646572206d75737420626520616e2061646d696e20746f206772616e7443616c6c6572206973206e656974686572206f776e6572206e6f722064656c6567617465416363657373436f6e74726f6c3a2073656e646572206d75737420626520616e2061646d696e20746f207265766f6b655472616e73616374696f6e2065787069726564000000000000000000000000005bfe1e16d75ca1fa001989652cd88c5b8ee8a59b5df6df99836337def4d1c82d436f6e747261637420686173206265656e207061757365640000000000000000416363657373436f6e74726f6c3a2063616e206f6e6c792072656e6f756e636520726f6c657320666f722073656c66a2646970667358221220a11ad47fd9010363cdae40ef8c0303628df1257425d726b9eb6f18f5410995da64736f6c63430006080033",
  "immutableReferences": {},
  "source": "// SPDX-License-Identifier:Apache-2.0\n//------------------------------------------------------------------------------\n//\n//   Copyright 2020 Fetch.AI Limited\n//\n//   Licensed under the Apache License, Version 2.0 (the \"License\");\n//   you may not use this file except in compliance with the License.\n//   You may obtain a copy of the License at\n//\n//       http://www.apache.org/licenses/LICENSE-2.0\n//\n//   Unless required by applicable law or agreed to in writing, software\n//   distributed under the License is distributed on an \"AS IS\" BASIS,\n//   WITHOUT WARRANTIES OR CONDITIONS OF ANY KIND, either express or implied.\n//   See the License for the specific language governing permissions and\n//   limitations under the License.\n//\n//------------------------------------------------------------------------------\n\npragma solidity ^0.6.0;\n\nimport \"./Staking.sol\";\n\n\ncontract StakingMock is Staking {\n    uint256 public _blockNumber;\n\n    constructor(\n          address ERC20Address\n        , uint256 interestRatePerBlock\n        , uint256 pausedSinceBlock\n        , uint64  lockPeriodInBlocks) \n    public Staking(\n        ERC20Address, interestRatePerBlock, pausedSinceBlock, lockPeriodInBlocks)\n    {\n        // NOTE(pb): Unnecessary, only wastes gas. The data mamber is implicitly initialised to default value( zero in the case of integral types). \n        //_blockNumber = 0;\n    }\n\n\n    function _getBlockNumber() internal view override returns(uint256) {\n        return _blockNumber;\n    }\n\n\n    function setBlockNumber(uint256 blockNumber) public {\n        _blockNumber = blockNumber;\n    }\n}\n",
  "sourcePath": "/Users/pb/code/fetch/cosmos/staking/contracts/ethereum/contracts/StakingMock.sol",
  "compiler": {
    "name": "solc",
    "version": "0.6.8+commit.0bbfe453.Emscripten.clang"
  },
  "schemaVersion": "3.1.0",
  "updatedAt": "2020-09-25T09:50:41.057Z",
  "devdoc": {
    "methods": {
      "addInterestRate(uint256,uint256)": {
        "details": "expiration period",
        "params": {
          "expirationBlock": "- block number beyond which is the carrier Tx considered expired, and so rejected.                    This is for protection of Tx sender to exactly define lifecycle length of the Tx,                    and so avoiding uncertainty of how long Tx sender needs to wait for Tx processing.                    Tx can be withheld",
          "rate": "- signed interest rate value in [10**18] units => real_rate [1] = rate [10**18] / 10**18"
        }
      },
      "deleteContract(address,uint256)": {
        "details": "owner only + only on or after `_earliestDelete` block",
        "params": {
          "payoutAddress": "address to transfer the balances to. Ensure that this is able to handle ERC20 tokens"
        }
      },
      "getLockedAssetsForUser(address)": {
        "details": "Returns locked assets decomposed in to 3 separate arrays (principal, compound interest, liquid since block)     NOTE(pb): This method might be quite expensive, depending on size of locked assets"
      },
      "getRoleAdmin(bytes32)": {
        "details": "Returns the admin role that controls `role`. See {grantRole} and {revokeRole}.     * To change a role's admin, use {_setRoleAdmin}."
      },
      "getRoleMember(bytes32,uint256)": {
        "details": "Returns one of the accounts that have `role`. `index` must be a value between 0 and {getRoleMemberCount}, non-inclusive.     * Role bearers are not sorted in any particular way, and their ordering may change at any point.     * WARNING: When using {getRoleMember} and {getRoleMemberCount}, make sure you perform all queries on the same block. See the following https://forum.openzeppelin.com/t/iterating-over-elements-on-enumerableset-in-openzeppelin-contracts/2296[forum post] for more information."
      },
      "getRoleMemberCount(bytes32)": {
        "details": "Returns the number of accounts that have `role`. Can be used together with {getRoleMember} to enumerate all bearers of a role."
      },
      "grantRole(bytes32,address)": {
        "details": "Grants `role` to `account`.     * If `account` had not been already granted `role`, emits a {RoleGranted} event.     * Requirements:     * - the caller must have ``role``'s admin role."
      },
      "hasRole(bytes32,address)": {
        "details": "Returns `true` if `account` has been granted `role`."
      },
      "pauseSince(uint256,uint256)": {
        "details": "Delegate only",
        "params": {
          "block_number": "block number since which non-admin interaction will be paused (for all _getBlockNumber() >= block_number)"
        }
      },
      "renounceRole(bytes32,address)": {
        "details": "Revokes `role` from the calling account.     * Roles are often managed via {grantRole} and {revokeRole}: this function's purpose is to provide a mechanism for accounts to lose their privileges if they are compromised (such as when a trusted device is misplaced).     * If the calling account had been granted `role`, emits a {RoleRevoked} event.     * Requirements:     * - the caller must be `account`."
      },
      "revokeRole(bytes32,address)": {
        "details": "Revokes `role` from `account`.     * If `account` had been granted `role`, emits a {RoleRevoked} event.     * Requirements:     * - the caller must have ``role``'s admin role."
      },
      "topUpRewardsPool(uint256,uint256)": {
        "details": "Even though this is considered as administrative action (is not affected by by contract paused state, it can be executed by anyone who wishes to top-up the rewards pool (funds are sent in to contract, *not* the other way around). The Rewards Pool is exclusively dedicated to cover withdrawals of user' compound interest, which is effectively the reward."
      },
      "unbindStake(uint256,uint256)": {
        "details": "public access",
        "params": {
          "amount": "- value to un-bind from the stake                If `amount=0` then the **WHOLE** stake (including                compound interest) will be unbound."
        }
      },
      "updateLockPeriod(uint64,uint256)": {
        "details": "Delegate only",
        "params": {
          "num_of_blocks": "length of the lock period"
        }
      },
      "withdraw(uint256,uint256)": {
        "details": "public access",
        "params": {
          "amount": "- value to withdraw"
        }
      },
      "withdrawCompoundInterest(uint256)": {
        "details": "public access"
      },
      "withdrawExcessTokens(address,uint256)": {
        "details": "Withdraw \"excess\" tokens, which were sent to contract directly via direct ERC20.transfer(...),     without interacting with API of this (Staking) contract, what could be done only by mistake.     Thus this method is meant to be used primarily for rescue purposes, enabling withdrawal of such     \"excess\" tokens out of contract.",
        "params": {
          "targetAddress": ": address to send tokens to",
          "txExpirationBlock": ": block number until which is the transaction valid (inclusive).                           When transaction is processed after this block, it fails."
        }
      },
      "withdrawFromRewardsPool(uint256,address,uint256)": {
        "details": "Withdraw tokens from rewards pool.",
        "params": {
          "amount": ": amount to withdraw.                If `amount == 0` then whole amount in rewards pool will be withdrawn.",
          "targetAddress": ": address to send tokens to"
        }
      },
      "withdrawPrincipal(uint256)": {
        "details": "public access"
      },
      "withdrawWholeLiquidity(uint256)": {
        "details": "public access"
      }
    }
  },
  "userdoc": {
    "methods": {
      "addInterestRate(uint256,uint256)": {
        "notice": "Add new interest rate in to the ordered container of previously added interest rates"
      },
      "deleteContract(address,uint256)": {
        "notice": "Delete the contract, transfers the remaining token and ether balance to the specified payoutAddress"
      },
      "pauseSince(uint256,uint256)": {
        "notice": "Pauses all NON-administrative interaction with the contract since the specidfed block number "
      },
      "unbindStake(uint256,uint256)": {
        "notice": "Unbinds amount from the stake of sender of the transaction,        and *LOCKS* it for number of blocks defined by value of the        `_lockPeriodInBlocks` state of this contract at the point        of this call.        The locked amount can *NOT* be withdrawn from the contract        *BEFORE* the lock period ends.     *         Unbinding (=calling this method) also means, that compound        interest will be calculated for period since la."
      },
      "updateLockPeriod(uint64,uint256)": {
        "notice": "Updates Lock Period value"
      },
      "withdraw(uint256,uint256)": {
        "notice": "Withdraws amount from sender' available liquidity pool back to sender address,        preferring withdrawal from compound interest dimension of liquidity."
      },
      "withdrawCompoundInterest(uint256)": {
        "notice": "Withdraws *WHOLE* compound interest amount available to sender."
      },
      "withdrawPrincipal(uint256)": {
        "notice": "Withdraws *WHOLE* compound interest amount available to sender."
      },
      "withdrawWholeLiquidity(uint256)": {
        "notice": "Withdraws whole liquidity available to sender back to sender' address,"
      }
    }
  }
}